{
  "contractName": "EthSwap",
  "abi": [
    {
      "inputs": [
        {
          "internalType": "contract Token",
          "name": "_token",
          "type": "address"
        }
      ],
      "payable": false,
      "stateMutability": "nonpayable",
      "type": "constructor"
    },
    {
      "anonymous": false,
      "inputs": [
        {
          "indexed": false,
          "internalType": "address",
          "name": "account",
          "type": "address"
        },
        {
          "indexed": false,
          "internalType": "address",
          "name": "token",
          "type": "address"
        },
        {
          "indexed": false,
          "internalType": "uint256",
          "name": "amount",
          "type": "uint256"
        },
        {
          "indexed": false,
          "internalType": "uint256",
          "name": "rate",
          "type": "uint256"
        }
      ],
      "name": "tokenPurchase",
      "type": "event"
    },
    {
      "constant": true,
      "inputs": [],
      "name": "name",
      "outputs": [
        {
          "internalType": "string",
          "name": "",
          "type": "string"
        }
      ],
      "payable": false,
      "stateMutability": "view",
      "type": "function"
    },
    {
      "constant": true,
      "inputs": [],
      "name": "rate",
      "outputs": [
        {
          "internalType": "uint256",
          "name": "",
          "type": "uint256"
        }
      ],
      "payable": false,
      "stateMutability": "view",
      "type": "function"
    },
    {
      "constant": true,
      "inputs": [],
      "name": "token",
      "outputs": [
        {
          "internalType": "contract Token",
          "name": "",
          "type": "address"
        }
      ],
      "payable": false,
      "stateMutability": "view",
      "type": "function"
    },
    {
      "constant": false,
      "inputs": [],
      "name": "buyTokens",
      "outputs": [],
      "payable": true,
      "stateMutability": "payable",
      "type": "function"
    }
  ],
  "bytecode": "0x60806040526040518060400160405280601881526020017f4574685377617020496e7374616e742045786368616e676500000000000000008152506000908051906020019061004f9291906100dc565b50606460025534801561006157600080fd5b506040516105aa3803806105aa8339818101604052602081101561008457600080fd5b810190808051906020019092919050505080600160006101000a81548173ffffffffffffffffffffffffffffffffffffffff021916908373ffffffffffffffffffffffffffffffffffffffff16021790555050610181565b828054600181600116156101000203166002900490600052602060002090601f016020900481019282601f1061011d57805160ff191683800117855561014b565b8280016001018555821561014b579182015b8281111561014a57825182559160200191906001019061012f565b5b509050610158919061015c565b5090565b61017e91905b8082111561017a576000816000905550600101610162565b5090565b90565b61041a806101906000396000f3fe60806040526004361061003f5760003560e01c806306fdde03146100445780632c4e722e146100d4578063d0febe4c146100ff578063fc0c546a14610109575b600080fd5b34801561005057600080fd5b50610059610160565b6040518080602001828103825283818151815260200191508051906020019080838360005b8381101561009957808201518184015260208101905061007e565b50505050905090810190601f1680156100c65780820380516001836020036101000a031916815260200191505b509250505060405180910390f35b3480156100e057600080fd5b506100e96101fe565b6040518082815260200191505060405180910390f35b610107610204565b005b34801561011557600080fd5b5061011e6103bf565b604051808273ffffffffffffffffffffffffffffffffffffffff1673ffffffffffffffffffffffffffffffffffffffff16815260200191505060405180910390f35b60008054600181600116156101000203166002900480601f0160208091040260200160405190810160405280929190818152602001828054600181600116156101000203166002900480156101f65780601f106101cb576101008083540402835291602001916101f6565b820191906000526020600020905b8154815290600101906020018083116101d957829003601f168201915b505050505081565b60025481565b6000606434029050600160009054906101000a900473ffffffffffffffffffffffffffffffffffffffff1673ffffffffffffffffffffffffffffffffffffffff1663a9059cbb33836040518363ffffffff1660e01b8152600401808373ffffffffffffffffffffffffffffffffffffffff1673ffffffffffffffffffffffffffffffffffffffff16815260200182815260200192505050602060405180830381600087803b1580156102b557600080fd5b505af11580156102c9573d6000803e3d6000fd5b505050506040513d60208110156102df57600080fd5b8101908080519060200190929190505050507f0f6740ba0e75507dd3d2bf2cf06be0ae6ca3a53aeebe7345ea34f6e11c5bc41c33600160009054906101000a900473ffffffffffffffffffffffffffffffffffffffff1683600254604051808573ffffffffffffffffffffffffffffffffffffffff1673ffffffffffffffffffffffffffffffffffffffff1681526020018473ffffffffffffffffffffffffffffffffffffffff1673ffffffffffffffffffffffffffffffffffffffff16815260200183815260200182815260200194505050505060405180910390a150565b600160009054906101000a900473ffffffffffffffffffffffffffffffffffffffff168156fea265627a7a723158208c2a966e872f746d1e60a9f3d936b47ab38f835eb71b25b8de583b6dce07fe7764736f6c63430005100032",
  "source": "pragma solidity ^0.5.0;\r\nimport \"./Token.sol\";\r\n\r\ncontract EthSwap {\r\n    string public name = \"EthSwap Instant Exchange\";\r\n    Token public token;\r\n    uint256 public rate = 100;\r\n\r\n    event tokenPurchase(\r\n        address account,\r\n        address token,\r\n        uint256 amount,\r\n        uint256 rate\r\n    );\r\n\r\n    constructor(Token _token) public {\r\n        token = _token;\r\n    }\r\n\r\n    function buyTokens() public payable {\r\n        // Calculate the amount of token to be transferred in excahnge of 1 ether\r\n        uint256 tokenAmount = (msg.value) * 100;\r\n        token.transfer(msg.sender, tokenAmount);\r\n\r\n        // Emit an event\r\n        emit tokenPurchase(msg.sender, address(token), tokenAmount, rate);\r\n    }\r\n}\r\n",
  "sourcePath": "C:\\Users\\zaid bhimala\\Desktop\\BlockChain\\eth_swap\\src\\contracts\\EthSwap.sol",
  "compiler": {
    "name": "solc",
    "version": "0.5.16+commit.9c3226ce.Emscripten.clang"
  },
  "schemaVersion": "3.0.23",
  "updatedAt": "2021-09-01T18:14:42.851Z",
  "devdoc": {
    "methods": {}
  },
  "userdoc": {
    "methods": {}
  }
}